{"abi":[{"type":"function","name":"createMarket","inputs":[{"name":"_initialMean","type":"int256","internalType":"SD59x18"},{"name":"_initialSigma","type":"int256","internalType":"SD59x18"},{"name":"_k","type":"int256","internalType":"SD59x18"},{"name":"_b","type":"int256","internalType":"SD59x18"},{"name":"_priceFeedId","type":"bytes32","internalType":"bytes32"},{"name":"_expiry","type":"uint64","internalType":"uint64"},{"name":"_collateralToken","type":"address","internalType":"address"},{"name":"_description","type":"string","internalType":"string"},{"name":"_lpTokenName","type":"string","internalType":"string"},{"name":"_lpTokenSymbol","type":"string","internalType":"string"},{"name":"_isPrivate","type":"bool","internalType":"bool"},{"name":"_initialWhitelist","type":"address[]","internalType":"address[]"}],"outputs":[],"stateMutability":"nonpayable"},{"type":"function","name":"deployedMarkets","inputs":[{"name":"","type":"uint256","internalType":"uint256"}],"outputs":[{"name":"","type":"address","internalType":"address"}],"stateMutability":"view"},{"type":"function","name":"getDeployedMarkets","inputs":[],"outputs":[{"name":"","type":"address[]","internalType":"address[]"}],"stateMutability":"view"},{"type":"event","name":"MarketCreated","inputs":[{"name":"marketAddress","type":"address","indexed":true,"internalType":"address"},{"name":"description","type":"string","indexed":false,"internalType":"string"}],"anonymous":false}],"bytecode":{"object":"0x60808060405234601557613393908161001a8239f35b5f80fdfe60a060408181526004608052608051361015610019575f80fd5b5f915f3560e01c908163181dbbda1461017c575080631b0bbbd21461008e57635b51eb8814610046575f80fd5b3461008a57602036600319011261008a576080513591805483101561008757506100716020926104b6565b905491519160018060a01b039160031b1c168152f35b80fd5b5080fd5b509034610087578060031936011261008757815180825492838252602080920180948280527f290decd9548b62a8d60345a988386fc84ba6bc95484008f6362f93160ef3e56390835b8582821061015f5750505050839003601f01601f191683019467ffffffffffffffff86118487101761014a5785815282865292518583018190528594938501939290915b82811061012a57505050500390f35b83516001600160a01b03168552869550938101939281019260010161011b565b634e487b7160e01b5f5260416080515260245ffd5b83546001600160a01b0316855290930192600192830192016100d7565b905034610450576101803660031901126104505760a4359167ffffffffffffffff90818416809403610450576001600160a01b0360c43581811693908490036104505760e435818111610450576101d890369060805101610488565b94909561010435838111610450576101f590369060805101610488565b9190610124358581116104505761021190369060805101610488565b95909461014435948515159c8d8703610450576101643597848911610450573660238a0112156104505788608051013599858b11610450573660248c60051b8c01011161045057612e188881019687118988101761014a57889760c0958f956102b5966102a7946105468d396044358b5260643560208c0152608435908b015260608a015260e060808a015260e08901916104fd565b9186830360a08801526104fd565b92015203905ff0801561047e57841697883b15610450575f86518080936352990e4f60e11b8252608051356080518301526024356024830152608060448301526103048c8c60848501916104fd565b9060648301520381838d5af1801561047457610461575b5080610458575b6103b4575b505085546801000000000000000081101561039e5791610398916103738460017f89e2b56dfb4365b59dc3a37aaf819ce4937e48be6ab23686edcecacf0124ae03989796018a556104b6565b819291549060031b9189831b921b1916179055519283926020845260208401916104fd565b0390a280f35b634e487b7160e01b875260805160419052602487fd5b863b1561045457908791845191637f64978360e01b83528060248401602060805186015252602460448401920190845b81811061042557505050818084920381838b5af1801561041b57156103275761040c9061051d565b61041757855f610327565b8580fd5b84513d84823e3d90fd5b91809495509290923590868216809203610450579081528a94936020918201939101916001016103e4565b5f80fd5b8780fd5b50811515610322565b61046c91995061051d565b5f975f61031b565b86513d5f823e3d90fd5b85513d5f823e3d90fd5b9181601f840112156104505782359167ffffffffffffffff8311610450576020838186019501011161045057565b5f548110156104e9575f80527f290decd9548b62a8d60345a988386fc84ba6bc95484008f6362f93160ef3e56301905f90565b634e487b7160e01b5f52603260045260245ffd5b908060209392818452848401375f828201840152601f01601f1916010190565b67ffffffffffffffff811161053157604052565b634e487b7160e01b5f52604160045260245ffdfe6101206040523461036b57612e188038038061001a8161036f565b928339810160e08282031261036b578151602080840151604085015160608601519490939192906001600160401b03808716870361036b57608088015181811161036b578261006a918a01610394565b9160a089015182811161036b5760c091610085918b01610394565b980151976001600160a01b038916890361036b578251828111610282576003918254916001958684811c94168015610361575b8885101461034d578190601f948581116102ff575b5088908583116001146102a1575f92610296575b50505f1982861b1c191690861b1783555b80519384116102825760049586548681811c91168015610278575b8282101461026557838111610222575b50809285116001146101bd57509383949184925f956101b2575b50501b925f19911b1c19161790555b600580546001600160a01b0319163317905560805260a05260c05260e052610100908152604051612a3291826103e6833960805182610291015260a05182610e55015260c051826110aa015260e051826101d10152518181816102c80152818161068601526118710152f35b015193505f80610137565b92919084601f198116885f52855f20955f905b8983831061020857505050106101ef575b50505050811b019055610146565b01519060f8845f19921b161c191690555f8080806101e1565b8587015189559097019694850194889350908101906101d0565b875f52815f208480880160051c82019284891061025c575b0160051c019087905b82811061025157505061011d565b5f8155018790610243565b9250819261023a565b602288634e487b7160e01b5f525260245ffd5b90607f169061010d565b634e487b7160e01b5f52604160045260245ffd5b015190505f806100e1565b90889350601f19831691875f528a5f20925f5b8c8282106102e957505084116102d2575b505050811b0183556100f2565b01515f1983881b60f8161c191690555f80806102c5565b8385015186558c979095019493840193016102b4565b909150855f52885f208580850160051c8201928b8610610344575b918a91869594930160051c01915b8281106103365750506100cd565b5f81558594508a9101610328565b9250819261031a565b634e487b7160e01b5f52602260045260245ffd5b93607f16936100b8565b5f80fd5b6040519190601f01601f191682016001600160401b0381118382101761028257604052565b81601f8201121561036b578051906001600160401b038211610282576103c3601f8301601f191660200161036f565b928284526020838301011161036b57815f9260208093018386015e830101529056fe6080604090808252600480361015610015575f80fd5b5f3560e01c91826306fdde03146112ce57508163095ea7b3146112265781630c849b7014611111578163158ef93e146110eb57816318160ddd146110cd5781631999bb9e1461109357816323b872dd14610fa15781632acfa69314610f12578163313ce56714610ef75781633af32abf14610ebb57816344ba824a14610e965781634ac8eb5f14610e785781634df7e3d014610e3e57816351c6590a14610cd25781635225238214610c5657816370a0823114610c205781637284e41614610b4f5781637f64978314610a6957816388fa7655146108fe5781638da5cb5b146108d657816395d89b41146107f25781639c8f9f23146105e35781639e14c6ef146105ac578163a5321c9e14610353578163a9059cbb14610323578163aba9beb8146102f757508063b2016bd4146102b4578063b4f40c611461027a578063bd2372771461025c578063cbf950bd1461023e578063dd62ed3e146101f5578063e184c9be146101b15763faff660e1461018b575f80fd5b346101ad575f3660031901126101ad5760209060ff6007541690519015158152f35b5f80fd5b50346101ad575f3660031901126101ad576020905167ffffffffffffffff7f0000000000000000000000000000000000000000000000000000000000000000168152f35b50346101ad57806003193601126101ad5760209061021161139d565b6102196113b3565b9060018060a01b038091165f5260018452825f2091165f528252805f20549051908152f35b50346101ad575f3660031901126101ad576020906009549051908152f35b50346101ad575f3660031901126101ad57602090600a549051908152f35b50346101ad575f3660031901126101ad57602090517f00000000000000000000000000000000000000000000000000000000000000008152f35b50346101ad575f3660031901126101ad57517f00000000000000000000000000000000000000000000000000000000000000006001600160a01b03168152602090f35b9050346101ad57816003193601126101ad576103179060243590356115d7565b82519182526020820152f35b82346101ad57806003193601126101ad5760209061034c61034261139d565b602435903361177d565b5160018152f35b82346101ad5760803660031901126101ad5760249160443567ffffffffffffffff918282116101ad57366023830112156101ad57818101359283116101ad57368584840101116101ad57606435938415158095036101ad576005546001600160a01b038116330361056a5760a01c60ff166105285750356009558335600a556103dd600654611482565b601f81116104c9575b505f90601f83116001146104485790829394915f9361043b575b5050508160011b915f199060031b1c1916176006555b60ff801960075416911617600755600160a01b60ff60a01b1960055416176005555f80f35b0101359050838080610400565b601f198316947ff652222313e28459528d920b65115c16c04f3efc82aaedc97be59f3f377c0d3f925f5b8781106104af5750846001969710610494575b50505050811b01600655610416565b5f1960f88660031b161c199201013516905583808080610485565b909360206001819285888801013581550195019101610472565b7ff652222313e28459528d920b65115c16c04f3efc82aaedc97be59f3f377c0d3f601f840160051c8101916020851061051e575b601f0160051c01905b81811061051357506103e6565b5f8155600101610506565b90915081906104fd565b90601a866020606494519362461bcd60e51b85528401528201527f4d61726b657420616c726561647920696e697469616c697a65640000000000006044820152fd5b815162461bcd60e51b81526020818501526019818901527f4f6e6c79206f776e65722063616e20696e697469616c697a65000000000000006044820152606490fd5b82346101ad5760203660031901126101ad576020906001600160a01b036105d161139d565b165f52600c8252805f20549051908152f35b9050346101ad576020806003193601126101ad5760025491803580156107b057831561077e57610629610622600b549561061d8785611516565b611529565b80956114f5565b600b55331561076857335f525f8352845f205481811061073c5790805f923384528386520386832055806002540360025585519081527fddf252ad1be2c89b69c2b068fc378daa952ba7f163c4a11628f55a4df523b3ef843392a37f00000000000000000000000000000000000000000000000000000000000000006001600160a01b031690816106e0575050505f808080938181156106d7575b3390f1156106ce57005b513d5f823e3d90fd5b506108fc6106c4565b92604483959392945f8551968794859363a9059cbb60e01b8552339085015260248401525af19081156106ce575061071457005b8161073392903d10610735575b61072b8183611442565b810190611857565b005b503d610721565b855163391434e360e21b8152338185019081526020810192909252604082018390529081906060010390fd5b8451634b637e8f60e11b81525f81840152602490fd5b5060649184519162461bcd60e51b8352820152600d60248201526c506f6f6c20697320656d70747960981b6044820152fd5b5060649184519162461bcd60e51b8352820152601c60248201527f4d757374206275726e206174206c65617374206f6e65207368617265000000006044820152fd5b9050346101ad575f3660031901126101ad578151905f9080549061081582611482565b808552916020916001918281169081156108a95750600114610851575b61084d868861084382890383611442565b5191829182611373565b0390f35b5f90815293507f8a35acfbc15ff81a39ae7d344fd709f28e8600b4aa8c65c6b64bfe7fe36bd19b5b838510610896575050505081016020016108438261084d5f610832565b8054868601840152938201938101610879565b905061084d9795508693506020925061084394915060ff191682840152151560051b82010192945f610832565b82346101ad575f3660031901126101ad5760055490516001600160a01b039091168152602090f35b905060603660031901126101ad57803560243560ff60075416610a4d575b60095491600a549461094561093460443585856119a1565b61093d8161186f565b600b546115ca565b600b558160095582600a558051928284527f8d0b88d9e8f7af9b6f334fe56aa51a3e61d69df6e5d5ab38e0594a4d334d7434826020958387820152a1335f52600c8452815f2096825195610998876113f6565b8652848601528151926109aa846113f6565b8352838301528051936109bc85611426565b84528284019182528301946001865280549068010000000000000000821015610a3a57906109ef916001820181556113c9565b939093610a28578290518051855501516001840155518051600284015501516003820155019051151560ff801983541691161790555f80f35b5f85634e487b7160e01b82525260245ffd5b604186634e487b7160e01b5f525260245ffd5b335f526008602052610a6460ff855f20541661156e565b61091c565b9050346101ad5760209160206003193601126101ad5767ffffffffffffffff9180358381116101ad57366023820112156101ad57808201359384116101ad5760249060053660248760051b840101116101ad576005546001600160a01b03949085163303610b0c57505f5b868110610add57005b8381831b84010135908582168092036101ad576001915f5260088952865f208260ff1982541617905501610ad4565b606490602087519162461bcd60e51b8352820152601f60248201527f4f6e6c79206f776e65722063616e2061646420746f2077686974656c697374006044820152fd5b82346101ad575f3660031901126101ad5780515f600654610b6f81611482565b80845290602090600190818116908115610bf65750600114610b9d575b61084d858761084382880383611442565b60065f90815293507ff652222313e28459528d920b65115c16c04f3efc82aaedc97be59f3f377c0d3f5b838510610be3575050505081016020016108438261084d610b8c565b8054868601840152938201938101610bc7565b61084d9795508693506020925061084394915060ff191682840152151560051b8201019294610b8c565b82346101ad5760203660031901126101ad576020906001600160a01b03610c4561139d565b165f525f8252805f20549051908152f35b82346101ad57806003193601126101ad5760a0906001600160a01b03610c7a61139d565b165f52600c602052610c99610c93602435835f206113c9565b506114ba565b90815191602083519301519160208201519080602083519301519301511515938151958652602086015284015260608301526080820152f35b602083366003190182136101ad5782359260ff60075416610e23575b8315610de257610cfd8461186f565b6002549081610dc657845b8515610d8357610d1a90600b546115ca565b600b553315610d6d5750917fddf252ad1be2c89b69c2b068fc378daa952ba7f163c4a11628f55a4df523b3ef91610d52855f956115ca565b600255338452838252808420858154019055519384523393a3005b6024905f84519163ec442f0560e01b8352820152fd5b835162461bcd60e51b8152808301869052601e60248201527f496e73756666696369656e7420616d6f756e7420666f722073686172657300006044820152606490fd5b610ddc610dd38387611516565b600b5490611529565b94610d08565b82606492519162461bcd60e51b8352820152601760248201527f4d7573742070726f7669646520636f6c6c61746572616c0000000000000000006044820152fd5b335f5260088352610e3960ff835f20541661156e565b610cee565b82346101ad575f3660031901126101ad57602090517f00000000000000000000000000000000000000000000000000000000000000008152f35b82346101ad575f3660031901126101ad57602090600b549051908152f35b82346101ad5760203660031901126101ad57610eb460209235611547565b9051908152f35b82346101ad5760203660031901126101ad576020906001600160a01b03610ee061139d565b165f526008825260ff815f20541690519015158152f35b82346101ad575f3660031901126101ad576020905160128152f35b9050346101ad57816003193601126101ad57610f2c61139d565b6001600160a01b03165f908152600c6020528290208054909290602435908110156101ad57610f5f60209160a0956113c9565b5060ff610f6b82611464565b94610f7860028401611464565b920154169282815195805187520151838601528151908501520151606083015215156080820152f35b9050346101ad5760603660031901126101ad57610fbc61139d565b610fc46113b3565b906044359260018060a01b038216805f526001602052855f20335f52602052855f2054915f198310610fff575b60208761034c88888861177d565b85831061106757811561105157331561103b57505f9081526001602090815286822033835281529086902091859003909155829061034c610ff1565b6024905f885191634a1406b160e11b8352820152fd5b6024905f88519163e602df0560e01b8352820152fd5b8651637dc7a0d960e11b8152339181019182526020820193909352604081018690528291506060010390fd5b82346101ad575f3660031901126101ad57602090517f00000000000000000000000000000000000000000000000000000000000000008152f35b82346101ad575f3660031901126101ad576020906002549051908152f35b82346101ad575f3660031901126101ad5760209060ff60055460a01c1690519015158152f35b9050346101ad576020806003193601126101ad57335f908152600c60205260409020823590548110156111f157335f908152600c6020526040902061115991610c93916113c9565b9183830151156111b857506060928161118d61117c8551838151910151906115d7565b9290950151848151910151906115d7565b5084808211156111af576111a0916114f5565b925b8251948552840152820152f35b50505f926111a2565b60649184519162461bcd60e51b83528201526015602482015274131959c81a5cc8185b1c9958591e4818db1bdcd959605a1b6044820152fd5b50606492519162461bcd60e51b83528201526011602482015270092dcecc2d8d2c840d8cace40d2dcc8caf607b1b6044820152fd5b82346101ad57806003193601126101ad5761123f61139d565b6024359033156112b8576001600160a01b03169081156112a25760209350335f5260018452825f20825f52845280835f205582519081527f8c5be1e5ebec7d5bd14f71427d1e84f3dd0314c0f7b2291e5b200ac8c7c3b925843392a35160018152f35b8251634a1406b160e11b81525f81860152602490fd5b825163e602df0560e01b81525f81860152602490fd5b8390346101ad575f3660031901126101ad575f6003546112ed81611482565b80845290602090600190818116908115610bf6575060011461131a5761084d858761084382880383611442565b60035f90815293507fc2575a0e9e593c00f959f8c92f12db2869c3395a3b0502d05e2516446f71f85b5b838510611360575050505081016020016108438261084d610b8c565b8054868601840152938201938101611344565b602060409281835280519182918282860152018484015e5f828201840152601f01601f1916010190565b600435906001600160a01b03821682036101ad57565b602435906001600160a01b03821682036101ad57565b80548210156113e2575f52600560205f20910201905f90565b634e487b7160e01b5f52603260045260245ffd5b6040810190811067ffffffffffffffff82111761141257604052565b634e487b7160e01b5f52604160045260245ffd5b6060810190811067ffffffffffffffff82111761141257604052565b90601f8019910116810190811067ffffffffffffffff82111761141257604052565b90604051611471816113f6565b602060018294805484520154910152565b90600182811c921680156114b0575b602083101461149c57565b634e487b7160e01b5f52602260045260245ffd5b91607f1691611491565b906040516114c781611426565b604060ff600483956114d881611464565b85526114e660028201611464565b60208601520154161515910152565b9190820391821161150257565b634e487b7160e01b5f52601160045260245ffd5b8181029291811591840414171561150257565b8115611533570490565b634e487b7160e01b5f52601260045260245ffd5b80156115695760025480611559575090565b610dd39061156692611516565b90565b505f90565b1561157557565b60405162461bcd60e51b815260206004820152602760248201527f4e6f742077686974656c697374656420666f7220746869732070726976617465604482015266081b585c9ad95d60ca1b6064820152608490fd5b9190820180921161150257565b919060095490600a54908185018281125f871290801582169115161761150257945f5b600f811061164b575061161992916116129187611be0565b9285611be0565b905f8282039212818312811691831390151617611502575f8112156116455761164190611acd565b9190565b505f9190565b9561168661165a848484611be0565b6116816116678585611ab5565b9161167b6116758880611b57565b93611acd565b90611b57565b611db3565b6116af611694868885611be0565b6116816116a18986611ab5565b9161167b6116758a80611b57565b905f828203921281831281169183139015161761150257600160ff1b81148015611776575b611764575f81121561175b576116eb815f03611e3c565b906001600160ff1b03821161173657662386f26fc100005f199118135f1461172e57905b5f828203921281831281169183139015161761150257956001016115fa565b5f039061170f565b6044906040519063120b5b4360e01b82526004820152662386f26fc100006024820152fd5b6116eb81611e3c565b60405163a6070c2560e01b8152600490fd5b505f6116d4565b916001600160a01b0380841692831561183f571692831561182757825f525f60205260405f2054908282106117f55750817fddf252ad1be2c89b69c2b068fc378daa952ba7f163c4a11628f55a4df523b3ef92602092855f525f84520360405f2055845f5260405f20818154019055604051908152a3565b60405163391434e360e21b81526001600160a01b03919091166004820152602481019190915260448101829052606490fd5b60405163ec442f0560e01b81525f6004820152602490fd5b604051634b637e8f60e11b81525f6004820152602490fd5b908160209103126101ad575180151581036101ad5790565b7f00000000000000000000000000000000000000000000000000000000000000006001600160a01b0316806118ec575034036118a757565b60405162461bcd60e51b815260206004820152601a60248201527f496e636f7272656374205242544320616d6f756e742073656e740000000000006044820152606490fd5b9034611951575f91606460209260405194859384926323b872dd60e01b845233600485015230602485015260448401525af180156119465761192b5750565b6119439060203d6020116107355761072b8183611442565b50565b6040513d5f823e3d90fd5b60405162461bcd60e51b815260206004820152602260248201527f446f206e6f742073656e64205242544320746f206120746f6b656e206d61726b604482015261195d60f21b6064820152608490fd5b600954600a54916119d16119b6858388611be0565b6116816119c38489611ab5565b9161167b6116758980611b57565b6119ec6119df858589611be0565b6116816119c3868a611ab5565b905f828203921281831281169183139015161761150257600160ff1b8114611aa35764e8d4a51000905f811215611a9e575f035b13611a6157611a3993611a339186611be0565b93611be0565b905f8282039212818312811691831390151617611502575f8112156115695761156690611acd565b60405162461bcd60e51b8152602060048201526015602482015274125b9d985b1a59081b5a5b9a5b5d5b481c1bda5b9d605a1b6044820152606490fd5b611a20565b60405163ec2b9e6760e01b8152600490fd5b81810392915f13801582851316918412161761150257565b600160ff1b81148015611b50575b611764575f811215611b4757611af2815f03611ec5565b906001600160ff1b038211611b1e575f19670de0b6b3a763ffff199091181315611b195790565b5f0390565b60405163120b5b4360e01b81526004810191909152670de0b6b3a763ffff196024820152604490fd5b611af281611ec5565b505f611adb565b600160ff1b818114908115611bd6575b50611764575f811215611bcd57611b8c815f035b5f841215611bc657835f0390611ff3565b916001600160ff1b038311611ba8575f1991181315611b195790565b604492506040519163120b5b4360e01b835260048301526024820152fd5b8390611ff3565b611b8c81611b7b565b905082145f611b67565b9291925f828203921281831281169183139015161761150257611c0681611c0b92611b57565b611acd565b91611c168180611b57565b600160ff1b9390848114611764575f811215611daa57611c37815f03611f3e565b6001600160ff1b039290838111611d835790611c68915f198094671bc16d674ec8000018135f14611d7b5790611db3565b928581148015611d74575b611764575f811215611d6b57611c8a815f03611f98565b90838211611d45576722c955229554c1b618821215611d3d57945b8514611d2b575f851215611d2557845f035b8015611533576ec097ce7bc90715b34b9f100000000004918211611cfe579061167b916115669495670de0b6b3a764000018135f14611cf65791612060565b5f0391612060565b60405163d49c26b360e01b8152670de0b6b3a7640000600482015260248101869052604490fd5b84611cb7565b6040516309fe2b4560e41b8152600490fd5b5f0394611ca5565b6044906040519063120b5b4360e01b825260048201526722c955229554c1b66024820152fd5b611c8a81611f98565b505f611c73565b5f0390611db3565b60405163120b5b4360e01b8152671bc16d674ec80000600482015260248101849052604490fd5b611c3781611f3e565b600160ff1b818114908115611e32575b50611d2b575f811215611e2957611de8815f035b5f841215611e2257835f03906120b6565b916001600160ff1b038311611e04575f1991181315611b195790565b604492506040519163d49c26b360e01b835260048301526024820152fd5b83906120b6565b611de881611dd7565b905082145f611dc3565b662386f26fc1000091905f1983820983820291828083109203918083039214611eb457670de0b6b3a76400009081831015611e9657945f805160206129dd83398151915294950990828211900360ee1b910360121c170290565b6044908660405191635173648d60e01b835260048301526024820152fd5b5050670de0b6b3a764000090049150565b670de0b6b3a764000091905f1983820983820291828083109203918083039214611f355784821015611f175793805f805160206129dd83398151915294950990828211900360ee1b910360121c170290565b6044908560405191635173648d60e01b835260048301526024820152fd5b50509190910490565b90671bc16d674ec800005f1983820983820291828083109203918083039214611eb457670de0b6b3a76400009081831015611e9657945f805160206129dd83398151915294950990828211900360ee1b910360121c170290565b6722c955229554c1b691905f1983820983820291828083109203918083039214611eb457670de0b6b3a76400009081831015611e9657945f805160206129dd83398151915294950990828211900360ee1b910360121c170290565b9091905f1983820983820291828083109203918083039214611eb457670de0b6b3a76400009081831015611e9657945f805160206129dd83398151915294950990828211900360ee1b910360121c170290565b8015611533576ec097ce7bc90715b34b9f10000000000590565b68023f2fa8f6da5b9d3119811261156957680736ea4425c11ac630811361209e57670de0b6b3a76400006714057b7ef767814f611566920205612164565b6024906040519063ca7ec0c560e01b82526004820152fd5b670de0b6b3a7640000915f1983830992808302928380861095039480860395146121575782851015612134579082910960018219018216809204600280826003021880830282030280830282030280830282030280830282030280830282030280920290030293600183805f03040190848311900302920304170290565b8260649260405192630c740aef60e31b8452600484015260248301526044820152fd5b5050906115669250611529565b5f8112156121915768033dd1780914b9711419811261156957612188905f03612164565b61156690612046565b680a688906bd8affffff81136129c557670de0b6b3a764000080604092831b0590600160bf1b67ff0000000000000083166128b4575b66ff00000000000083166127ac575b65ff000000000083166126ac575b64ff0000000083166125b4575b63ff00000083166124c4575b62ff000083166123dc575b61ff0083166122fc575b60ff8316612225575b02911c60bf031c90565b608083166122ea575b8383166122d8575b602083166122c6575b601083166122b4575b600883166122a2575b60048316612290575b6002831661227e575b600183161561221b576801000000000000000102831c61221b565b6801000000000000000102831c612263565b6801000000000000000302831c61225a565b6801000000000000000602831c612251565b6801000000000000000b02831c612248565b6801000000000000001602831c61223f565b6801000000000000002c02831c612236565b6801000000000000005902831c61222e565b61800083166123ca575b61400083166123b8575b61200083166123a6575b6110008316612394575b6108008316612382575b6104008316612370575b610200831661235e575b61010083161561221257680100000000000000b102831c612212565b6801000000000000016302831c612342565b680100000000000002c602831c612338565b6801000000000000058c02831c61232e565b68010000000000000b1702831c612324565b6801000000000000162e02831c61231a565b68010000000000002c5d02831c612310565b680100000000000058b902831c612306565b6280000083166124b2575b6240000083166124a0575b62200000831661248e575b62100000831661247c575b62080000831661246a575b620400008316612458575b620200008316612446575b62010000831615612208576801000000000000b17202831c612208565b680100000000000162e402831c612429565b6801000000000002c5c802831c61241e565b68010000000000058b9102831c612413565b680100000000000b172102831c612408565b68010000000000162e4302831c6123fd565b680100000000002c5c8602831c6123f2565b6801000000000058b90c02831c6123e7565b638000000083166125a2575b63400000008316612590575b6320000000831661257e575b6310000000831661256c575b6308000000831661255a575b63040000008316612548575b63020000008316612536575b63010000008316156121fd5768010000000000b1721802831c6121fd565b6801000000000162e43002831c612518565b68010000000002c5c86002831c61250c565b680100000000058b90c002831c612500565b6801000000000b17217f02831c6124f4565b680100000000162e42ff02831c6124e8565b6801000000002c5c85fe02831c6124dc565b68010000000058b90bfc02831c6124d0565b648000000000831661269a575b6440000000008316612688575b6420000000008316612676575b6410000000008316612664575b6408000000008316612652575b6404000000008316612640575b640200000000831661262e575b6401000000008316156121f157680100000000b17217f802831c6121f1565b68010000000162e42ff102831c61260f565b680100000002c5c85fe302831c612602565b6801000000058b90bfce02831c6125f5565b68010000000b17217fbb02831c6125e8565b6801000000162e42fff002831c6125db565b68010000002c5c8601cc02831c6125ce565b680100000058b90c0b4902831c6125c1565b65800000000000831661279a575b654000000000008316612788575b652000000000008316612776575b651000000000008316612764575b650800000000008316612752575b650400000000008316612740575b65020000000000831661272e575b650100000000008316156121e4576801000000b17218355102831c6121e4565b680100000162e430e5a202831c61270e565b6801000002c5c863b73f02831c612700565b68010000058b90cf1e6e02831c6126f2565b680100000b1721bcfc9a02831c6126e4565b68010000162e43f4f83102831c6126d6565b680100002c5c89d5ec6d02831c6126c8565b6801000058b91b5bc9ae02831c6126ba565b668000000000000083166128a2575b66400000000000008316612890575b6620000000000000831661287e575b6610000000000000831661286c575b6608000000000000831661285a575b66040000000000008316612848575b66020000000000008316612836575b66010000000000008316156121d65768010000b17255775c0402831c6121d6565b6801000162e525ee054702831c612815565b68010002c5cc37da949202831c612806565b680100058ba01fb9f96d02831c6127f7565b6801000b175effdc76ba02831c6127e8565b680100162f3904051fa102831c6127d9565b6801002c605e2e8cec5002831c6127ca565b68010058c86da1c09ea202831c6127bb565b67800000000000000083166129b2575b67400000000000000083166129a0575b672000000000000000831661298e575b671000000000000000831661297c575b670800000000000000831661296a575b6704000000000000008316612958575b6702000000000000008316612946575b6701000000000000008316156121c757680100b1afa5abcbed6102831c6121c7565b68010163da9fb33356d802831c612924565b680102c9a3e778060ee702831c612914565b6801059b0d31585743ae02831c612904565b68010b5586cf9890f62a02831c6128f4565b6801172b83c7d517adce02831c6128e4565b6801306fe0a31b7152df02831c6128d4565b5068016a09e667f3bcc909607f1b6128c4565b60249060405190626c1a0560e31b82526004820152fdfeaccb18165bd6fe31ae1cf318dc5b51eee0e1ba569b88cd74c1773b91fac10669a26469706673582212203eaea3beeb929451773f565803bf91c0ea0ec7ecca7e80380738a0129a6e2acd64736f6c63430008190033a2646970667358221220b7e7ccd44505600e7c90770f81cf65848634f8d0f209aabc3a3493ac56c9b10a64736f6c63430008190033","linkReferences":{}},"methodIdentifiers":{"createMarket(int256,int256,int256,int256,bytes32,uint64,address,string,string,string,bool,address[])":"181dbbda","deployedMarkets(uint256)":"5b51eb88","getDeployedMarkets()":"1b0bbbd2"},"id":57}